:1000000021C033C032C031C030C02FC02EC02DC07F
:100010002CC02BC02AC029C028C027C026C025C09C
:1000200024C023C022C04C696E69613100040A0AF1
:100030000A111F1F0E0E111B111115110E464C41F6
:100040005348000011241FBECFE5D4E0DEBFCDBF72
:1000500010E0A0E6B0E0EAEFF3E002C005900D92F8
:10006000A637B107D9F741D1C6C1CACF8A9A8B9AB0
:100070008C9ABE9A089580FF02C0C69A01C0C698A5
:1000800081FF02C0949A01C0949882FF02C0939AA3
:1000900001C0939883FF02C0929A089592980895A0
:1000A000CF93C82FE3DF919A8C2F82958F70E3DF77
:1000B0009198919A8C2FDFDF91988FEE90E00197C5
:1000C000F1F700C00000CF9108959098E9CF909A81
:1000D000E7CF90E8980F983008F48770F8CFCF9367
:1000E000DF93EC019991992351F080E8890F8830D2
:1000F00018F4892F877001C0892FE9DFF3CFDF91D2
:10010000CF910895CF93DF93EC01FE019491992351
:1001100059F080E8890F883018F4892F877001C062
:10012000892FD5DF2196F1CFDF91CF910895CF931D
:10013000DF93EC01219657D19FEF980F9E3F40F43B
:1001400090E8980F983008F48770C1DFCE01F1CFA6
:10015000DF91CF910895CF93DF93CDB7DEB761974D
:100160000FB6F894DEBF0FBECDBF4AE0BE016F5F91
:100170007F4F06D1B4DF61960FB6F894DEBF0FBE95
:10018000CDBFDF91CF910895EF92FF920F931F9310
:10019000CF93DF9300D0CDB7DEB78770880F880F7D
:1001A000880F805C69837A8390DF6981E62E7A818B
:1001B000F72E8701085F1F4FF70181917F0187DFCD
:1001C000E016F106C9F70F900F90DF91CF911F91C4
:1001D0000F91FF90EF9008950F931F93CF93DF93AC
:1001E000EB018770880F880F880F805C6EDF8E01AF
:1001F000085F1F4FFE0184916ADF2196C017D10767
:10020000C9F7DF91CF911F910F910895EF92FF925F
:100210000F931F93CF93DF93EB018770880F880FA5
:10022000880F805C52DF8E01085F1F4F7E018FEFC9
:10023000E81AF80ACE01D7D04ADFE701E016F10646
:10024000A9F7DF91CF911F910F91FF90EF90089543
:10025000813009F480E46058860F37CF81E035DFC4
:1002600087E496E20197F1F700C000000895FEDEF2
:10027000889A899A909A919A8FE295E70197F1F777
:1002800000C0000091989098919A83E0F4DE9198D4
:1002900087E090E20197F1F700C00000919A83E0B7
:1002A000EADE919887EC90E00197F1F700C000003A
:1002B000919A83E0E0DE919887EC90E00197F1F766
:1002C00000C00000919A82E0D6DE919887EC90E021
:1002D0000197F1F700C0000088E2F7DE88E0F5DE64
:1002E0008CE0F3DE86E0F1DEB9CF2FEF80E792E01D
:1002F000215080409040E1F700C00000B8DF2FEFB0
:1003000080E792E0215080409040E1F700C000007B
:100310008DE390E0F7DE6AE080E09ADF86E290E02D
:10032000F1DE60E081E094DF88E090E000DF6AE0E9
:1003300081E08EDF88E690E0D2DE60E670E080E863
:1003400023DF60E070E081E861DF65E370E082E870
:1003500043DF6DE270E083E83FDF67E080E078DF55
:100360008FE690E0BCDE68E081E072DF82E790E03B
:10037000B6DE67E081E06CDF84E790E0B0DEFFCFBF
:10038000BB274A3031F4992322F4BDE29095819540
:100390009F4F01C0BB27FB015527AA27880F991F34
:1003A000AA1FA41710F0A41B83955051B9F7A05DA4
:1003B000AA3308F0A95DA193009779F7B111B19321
:1003C0001192CB0100C0DC01FC01672F71917723F2
:1003D000E1F7329704C07C916D9370836291AE1700
:1003E000BF07C8F30895E199FECF9FBB8EBBE09A8B
:0A03F00099278DB30895F894FFCF0C
:1003FA001010121418101F004C696E6961320080C7
:06040A0081008200830066
:00000001FF
