:100000000C9431000C944E000C944E000C944E0055
:100010000C944E000C944E000C944E000C944E0028
:100020000C944E000C944E000C9475040C944E00ED
:100030000C944E000C944E000C944E000C944E0008
:100040000C944E000C944E000C944E000C944E00F8
:100050000C944E00202054312020202020202054B9
:10006000320011241FBECFE5D8E0DEBFCDBF10E0C7
:10007000A0E6B0E0E4E8FBE002C005900D92A238F3
:10008000B107D9F710E0A2E8B0E001C01D92A93A8B
:10009000B107E1F70E94BA040C94C0050C9400006B
:1000A00080FF02C0DB9A01C0DB9881FF02C0DC9AAE
:1000B00001C0DC9882FF02C0DD9A01C0DD9883FF99
:1000C00002C0DE9A0895DE98089589B390E023E097
:1000D000969587952A95E1F78170CC998260CD99A4
:1000E0008460CE99886008951F93D698D598D49847
:1000F000D398D99ADA9A0E946500182F1295107F2A
:10010000DA98DA9A0E946500DA98812B1F91089597
:10011000D8980E94740008951F93182FD69AD59AE4
:10012000D49AD39AD998DA9A82958F700E94500007
:10013000DA98DA9A812F0E945000DA980E9488009B
:1001400087FDFCCF1F910895D8980E948C000895D8
:10015000D89A0E948C000895982F8058883008F40F
:100160009770892F0E94A8000895CF93DF93EC0128
:1001700008C0892F8058883008F49770892F0E9412
:10018000A80099919923A9F7DF91CF910895CF9372
:10019000DF93EC010AC0892F8058883010F0892F36
:1001A00002C0892F87700E94A800FE0121969491B9
:1001B000992389F7DF91CF9108951F93CF93DF9310
:1001C000EB0190E0877090700896880F880F880F79
:1001D0000E94A40010E089910E94A8001F5F1830BF
:1001E000D1F7DF91CF911F9108950F931F93CF9374
:1001F000DF938B0190E0877090700896880F880FCE
:10020000880F0E94A400C0E0D0E0F801EC0FFD1FB1
:10021000E4918E2F0E94A8002196C830D105A9F73D
:10022000DF91CF911F910F910895813009F480E4FF
:100230006058860F0E94A400089581E00E94A400E7
:1002400008950F931F93D69AD59AD49AD39AD09A99
:10025000D29AD19AD89ADA9AD99A80E092EA0197FA
:10026000F1F7DA98D898D998DA9A83E00E9450008A
:10027000DA9887E49CE20197F1F7DA9A83E00E942A
:100280005000DA9804E111E0C8010197F1F7DA9A19
:1002900083E00E945000DA98C8010197F1F7DA9ADA
:1002A00082E00E945000DA98C8010197F1F788E2D5
:1002B0000E94A40088E00E94A4008CE00E94A40098
:1002C00086E00E94A4000E941D011F910F910895D5
:1002D0000F931F93CF93DF938B0190E08770907003
:1002E0000896880F880F880F0E94A400C0E0D0E015
:1002F000C8018C0F9D1F0E9494050E94A8002196A2
:10030000C830D105A9F7DF91CF911F910F910895C2
:10031000CF93DF93EC0121960E949405982F815092
:100320008E3F48F48F57883008F49770892F0E94C9
:10033000A800CE01EFCFDF91CF910895DF93CF9347
:10034000CDB7DEB761970FB6F894DEBF0FBECDBF55
:10035000BE016F5F7F4F4AE050E00E9473050E942C
:10036000B50061960FB6F894DEBF0FBECDBFCF913A
:10037000DF910895DC0120E040E050E098E115C0F5
:10038000FD01E40FF51FE08138E08E2F8227F82F62
:10039000F17080FD29272695F13009F4206831504D
:1003A00011F0E695F2CF4F5F5F4F4617570741F7C1
:1003B000822F0895AF92BF92DF92EF92FF920F9338
:1003C0001F93DF93CF93CDB7DEB760970FB6F89446
:1003D000DEBF0FBECDBFD82E7A015901DE011196C6
:1003E000E0E6F0E080E101900D928150E1F7FB0141
:1003F0008081482F50E0918180E0482B592BF0E11B
:10040000DF1679F4CA018E7F33E0880F991F3A9581
:10041000E1F7FB0126814CE050E0421B5109480FF7
:10042000591F57FF07C081E0F70180835095419520
:100430005F4F02C0F7011082F8E2DF1699F4FB016A
:100440008481682F70E0CB018076907080369105B2
:1004500049F066FF02C04E7F05C065FF02C04C7FB9
:1004600001C0487FCA0124E0969587952A95E1F757
:10047000F5018083842F8F70FE01E80FF11D8181CB
:10048000F801808380E060960FB6F894DEBF0FBE5F
:10049000CDBFCF91DF911F910F91FF90EF90DF9033
:1004A000BF90AF900895882319F0709561957F4FA4
:1004B000442319F0309521953F4F621773071CF4C0
:1004C0004FEF5FEF07C040E050E02617370714F406
:1004D00041E050E0CA0108957F928F929F92AF92BF
:1004E000BF92CF92DF92EF92FF920F931F93DF9311
:1004F000CF93CDB7DEB729970FB6F894DEBF0FBE06
:10050000CDBF782E6B015A0149018EEB60E070E09F
:100510000E9456048E010F5F1F4F4AE0E42EF12C1B
:10052000EC0EFD1E0E940604F80181938F01EE156A
:10053000FF05C1F77E010894E11CF11CC70169E0C9
:1005400070E00E94BA01882311F083E008C0872D73
:10055000B701A601950184010E94DA0180E0299685
:100560000FB6F894DEBF0FBECDBFCF91DF911F91C4
:100570000F91FF90EF90DF90CF90BF90AF909F9042
:100580008F907F9008956F927F928F929F92AF92FB
:10059000BF92CF92DF92EF92FF920F931F93DF9360
:1005A000CF93CDB7DEB729970FB6F894DEBF0FBE55
:1005B000CDBF6C015B014A0139010E94C9038EEB7A
:1005C000B6010E9456048E010F5F1F4F5AE0E52EC0
:1005D000F12CEC0EFD1E0E940604F80181938F01A0
:1005E000EE15FF05C1F77E010894E11CF11CC7015F
:1005F00069E070E00E94BA01882311F083E009C02D
:10060000F6018081B701A501940183010E94DA01FE
:1006100080E029960FB6F894DEBF0FBECDBFCF9114
:10062000DF911F910F91FF90EF90DF90CF90BF90DF
:10063000AF909F908F907F906F9008951F93CF936E
:10064000DF93182FEB010E94C9030E94C003882387
:1006500011F482E009C084E4BE010E945604113006
:1006600011F00E94C30380E0DF91CF911F910895A4
:100670000F931F938C010E94C90384EBB8010E9461
:10068000560481E00E94E203182F0E94C903111151
:1006900011E0812F1F910F9108950F931F93CF9316
:1006A000DF938C01EB01F8018081BE010E940A04F6
:1006B000F801808381508D3F28F48881883211F0C1
:1006C000803189F7DF91CF911F910F9108958F921B
:1006D0009F92AF92BF92CF92DF92FF920F931F93A0
:1006E000DF93CF93CDB7DEB729970FB6F894DEBF6F
:1006F0000FBECDBF8FEF898300E010E0E2E0CE2E89
:10070000D12CCC0EDD1E4E010894811C911C7AE088
:10071000A72EB12CAC0EBD1E19C0C401B6010E949B
:100720004D0389818F3FC9F08E3FB9F0D601F801A2
:1007300063E0EE0FFF1F6A95E1F7ED57FF4F8D91D4
:100740008193AA15BB05D9F70F5F1F4FF02E898142
:10075000882319F00430110501F78F2D29960FB663
:10076000F894DEBF0FBECDBFCF91DF911F910F91E7
:10077000FF90DF90CF90BF90AF909F908F900895A3
:1007800086B382700895C19AB99A0895C198B998AC
:100790000895C198B99A8FE295E00197F1F78FB764
:1007A000F894B99893EF9A95F1F726B38FBF88E73D
:1007B00094E00197F1F7B19902C081E00895822F8A
:1007C000827008952FB7F894B99A93E09A95F1F74B
:1007D0008111B99897E39A95F1F7B19B80E095EA7A
:1007E0009A95F1F7B9982FBF08950F931F93182F7B
:1007F00008E0812F81700E94E20316958111106834
:100800000150B9F7812F1F910F9108958FEF0E942A
:10081000F5030895DF92EF92FF920F931F93CF930A
:10082000DF93E82EEB010E94C9038823A1F580EF36
:100830000E94F50380E4FF24182F98EFD92ED80EDC
:1008400081E00E94E203082F81E00E94E2038823F6
:1008500029F0002371F08EEFF82E1FC0002349F419
:100860001E1528F0888180FF04C0E11611F0F12EDA
:1008700001E0802F0E94E20388818695888300230F
:1008800011F08068888311501D15D1F6112329F0CD
:100890002196812FD1CFFF24FA948F2DDF91CF9114
:1008A0001F910F91FF90EF90DF9008950F931F938A
:1008B000CF93DF93082FEB010E94C903209751F0DB
:1008C00085E50E94F50318E089910E94F503115017
:1008D000D9F703C08CEC0E94F503802F0E94F5032A
:1008E000DF91CF911F910F9108951F920F920FB634
:1008F0000F9211248F93809182008F5F80938200EA
:10090000843680F081E08093A5008091A3008F5F02
:100910008093A3008091A3008C3310F01092A30069
:10092000109282008F910F900FBE0F901F9018951C
:10093000682F81E00E9415018091A600882319F09C
:1009400080E790E002C082E790E00E94B5008091CD
:10095000A70090E00E949E0184E790E00E94B5000D
:100960008091A40090E00E949E0186E790E00E94A2
:10097000B5000895D79ADF9A83B7886083BF83B79D
:10098000856083BF8CE68CBF89B7826089BF0E9477
:1009900021010E9467038093A80081E060E070E07D
:1009A0000E941E038CE49DE124E131E0F9013197BE
:1009B000F1F70197D9F783E890E066EA70E047EA3B
:1009C00050E024EA30E00E94C302882319F40E9418
:1009D000980408C081E060E00E9415018AE790E079
:1009E0000E94B5008BE890E066EA70E047EA50E0CC
:1009F00024EA30E00E94C302882321F489E00E94A7
:100A0000980408C081E069E00E9415018AE790E03F
:100A10000E94B500789480E060E00E94150184E5B2
:100A200090E00E94C7008091A5008823E1F38091A7
:100A3000A30063E00E946705992321F40E946703E5
:100A40008093A8008091A30063E00E946705913025
:100A500029F481E060E070E00E941E038091A30011
:100A600063E00E946705923079F583E890E066EADA
:100A700070E047EA50E024EA30E00E94C302882395
:100A800019F40E94980408C081E060E00E941501FA
:100A90008AE790E00E94B5008BE890E066EA70E09B
:100AA00047EA50E024EA30E00E94C302882321F4A0
:100AB00089E00E94980408C081E069E00E94150165
:100AC0008AE790E00E94B5001092A500ACCF991B78
:100AD00079E004C0991F961708F0961B881F7A9535
:100AE000C9F780950895FB019F01E8944230C4F056
:100AF0004532B4F44A3029F497FB1EF49095819561
:100B00009F4F642F77270E94AC05805D8A330CF0DD
:100B1000895D8193CB010097A1F716F45DE25193B3
:100B20001082C9010C949C05E199FECF9FBB8EBB3E
:100B3000E09A99278DB30895DC01FC01672F71912C
:100B40007723E1F7329704C07C916D9370836291B3
:100B5000AE17BF07C8F30895AA1BBB1B51E107C01E
:100B6000AA1FBB1FA617B70710F0A61BB70B881F3D
:100B7000991F5A95A9F780959095BC01CD010895CC
:040B8000F894FFCF17
:100B84000001010202030404050606070708090917
:100B94002D0020002E0020432000206572726F7209
:020BA40020002F
:00000001FF
