:100000000C942A000C9447000C9447000C94470071
:100010000C9447000C9447000C9447000C94470044
:100020000C9447000C9447000C9447000C94470034
:100030000C9447000C94BA000C947E000C9455006C
:100040000C9447000C9447000C9447000C94470014
:100050000C94470011241FBECFE5D8E0DEBFCDBF12
:1000600010E0A0E6B0E0EEEEF2E002C005900D92E6
:10007000AE37B107D9F710E0AEE7B0E001C01D928E
:10008000A23BB107E1F70E94FC000C9475010C94AF
:10009000000090BD89B988E18AB986E880BD8A9A56
:1000A000929A8AB1886D8AB908951F920F920FB6FD
:1000B0000F92112492980F900FBE0F901F901895D9
:1000C000282F90917E009F5F9F7080917F009817EE
:1000D000E1F3E92FF0E0E058FF4F208390937E009A
:1000E000559A0895CF93DF93EC0102C00E946000FF
:1000F00089918823D9F7DF91CF9108951F920F92AC
:100100000FB60F9211248F939F93EF93FF939091CB
:100110007E0080917F00981771F080917F008F5F43
:100120008F7080937F00E0917F00F0E0E058FF4FF8
:1001300080818CB901C05598FF91EF919F918F916B
:100140000F900FBE0F901F90189590919000809186
:100150009100981711F480E00895809191008F5FCD
:100160008F7180939100E0919100F0E0EE56FF4F87
:10017000808108951F920F920FB60F9211248F93D2
:100180009F93EF93FF939CB1E0919000EF5FEF712D
:1001900080919100E81731F0E0939000F0E0EE5686
:1001A000FF4F9083FF91EF919F918F910F900FBE22
:1001B0000F901F9018950F931F93DF93CF93CDB798
:1001C000DEB761970FB6F894DEBF0FBECDBFAB01AF
:1001D0008E010F5F1F4FB8010E943001C8010E94BD
:1001E000720061960FB6F894DEBF0FBECDBFCF91FF
:1001F000DF911F910F910895EF92FF920F931F933C
:10020000CF93DF9383E390E00E944900789401B795
:100210000451102F88ECE82EF12CC02FD0E0A896C6
:1002200080E690E00E947200812F90E06AE070E02A
:100230000E94DB008DE00E9460008AE00E94600066
:1002400088E893E1F7013197F1F70197D9F711BFEA
:100250001F5F812F90E0C817D90714F7102FE0CF48
:10026000FB019F01E8944230C4F04532B4F44A30B7
:1002700029F497FB1EF4909581959F4F642F772763
:100280000E946101805D8A330CF0895D8193CB010E
:100290000097A1F716F45DE251931082C9010C9406
:1002A0005101DC01FC01672F71917723E1F732974F
:1002B00004C07C916D9370836291AE17BF07C8F341
:1002C0000895AA1BBB1B51E107C0AA1FBB1FA6179D
:1002D000B70710F0A61BB70B881F991F5A95A9F7EF
:0E02E00080959095BC01CD010895F894FFCF54
:1002EE005465737420554152542C20776172746F8B
:0E02FE007363204F534343414C203D200000CA
:00000001FF
