:100000000C942A000C9447000C9447000C94470071
:100010000C9447000C9447000C9447000C94470044
:100020000C9447000C9447000C9447000C94470034
:100030000C9447000C9447000C9447000C94470024
:100040000C94B3010C9447000C9447000C944700A7
:100050000C94470011241FBECFE5D8E0DEBFCDBF12
:1000600010E0A0E6B0E0E8EFF6E002C005900D92E7
:10007000A637B107D9F710E0A6E7B0E001C01D929E
:10008000A538B107E1F70E940A020C947A030C9498
:10009000000080FF02C0C49A01C0C49881FF02C062
:1000A000C59A01C0C59882FF02C0C69A01C0C69811
:1000B00083FF02C0C79A0895C798089586B390E059
:1000C00024E0969587952A95E1F78170B59982602D
:1000D000B6998460B799886008951F93BF98BE98B9
:1000E000BD98BC98C19AC29A0E945E00182F1295C2
:1000F000107FC298C29A0E945E00C298812B1F9105
:100100000895C0980E946D0008951F93182FBF9AFC
:10011000BE9ABD9ABC9AC198C29A82958F700E946D
:100120004900C298C29A812F0E944900C2980E9439
:10013000810087FDFCCF1F910895C0980E94850023
:100140000895C09A0E9485000895982F805888309D
:1001500008F49770892F0E94A1000895CF93DF9330
:10016000EC0108C0892F8058883008F49770892FD7
:100170000E94A10099919923A9F7DF91CF91089549
:10018000CF93DF93EC010AC0892F8058883010F09C
:10019000892F02C0892F87700E94A100FE0121963D
:1001A0009491992389F7DF91CF9108951F93CF936D
:1001B000DF93EB0190E0877090700896880F880FAE
:1001C000880F0E949D0010E089910E94A1001F5F8E
:1001D0001830D1F7DF91CF911F9108950F931F939E
:1001E000CF93DF938B0190E0877090700896880F13
:1001F000880F880F0E949D00C0E0D0E0F801EC0F4E
:10020000FD1FE4918E2F0E94A1002196C830D105D8
:10021000A9F7DF91CF911F910F910895813009F4D3
:1002200080E46058860F0E949D00089581E00E943E
:100230009D0008950F931F93BF9ABE9ABD9ABC9AD2
:10024000B89ABA9AB99AC09AC29AC19A80E092EAC8
:100250000197F1F7C298C098C198C29A83E00E94B2
:100260004900C29887E49CE20197F1F7C29A83E0C3
:100270000E944900C29804E111E0C8010197F1F71A
:10028000C29A83E00E944900C298C8010197F1F721
:10029000C29A82E00E944900C298C8010197F1F712
:1002A00088E20E949D0088E00E949D008CE00E94F0
:1002B0009D0086E00E949D000E9416011F910F91F3
:1002C00008950F931F93CF93DF938B0190E0877076
:1002D00090700896880F880F880F0E949D00C0E0DC
:1002E000D0E0C8018C0F9D1F0E9472030E94A100E4
:1002F0002196C830D105A9F7DF91CF911F910F91B9
:100300000895CF93DF93EC0121960E947203982FFA
:1003100081508E3F48F48F57883008F49770892FAA
:100320000E94A100CE01EFCFDF91CF910895DF931E
:10033000CF93CDB7DEB761970FB6F894DEBF0FBE8F
:10034000CDBFBE016F5F7F4F4AE050E00E94510376
:100350000E94AE0061960FB6F894DEBF0FBECDBF0F
:10036000CF91DF9108951F920F920FB60F92112433
:100370000F900FBE0F901F9018959F92AF92BF9253
:10038000CF92DF92EF92FF920F931F93CF93DF9361
:10039000EC016B01B42E922E97FD02C0AA2406C078
:1003A000D095C195DF4FBA94AA24A39476010894FE
:1003B000E11CF11C8601CE016AE070E00E94F802A7
:1003C000CD2B31F4C016D10619F0F801908203C08C
:1003D000805DF8018083F701BA940894E11CF11C58
:1003E0000F5F1F4FEB011B1434F3AA2011F08DE2B5
:1003F00081931082C6010E944103C601DF91CF9113
:100400001F910F91FF90EF90DF90CF90BF90AF9032
:100410009F9008952F923F924F925F926F927F929A
:100420009F92AF92BF92CF92DF92EF92FF920F9383
:100430001F93CF93DF930E941A0181B3886181BB20
:10044000939A949887E087B987B1806C87B987E8D9
:1004500086B978940E94160180E690E00E94AE0072
:1004600080E197E224E131E0F9013197F1F701975A
:10047000D9F7EE24FF24870145E0942E34E1232EA2
:1004800031E0332E2CEC422E2AE0522E369A369B47
:10049000FECF84B195B1A0E0B0E08093810090934D
:1004A0008200A0938300B093840092E0EE0CFF1CC6
:1004B000001F111F9A95D1F7609181007091820001
:1004C00080918300909184002AE934E740E050E075
:1004D0000E94D902E60EF71E081F191FC801B701B6
:1004E00025E030E040E050E00E940B03D22EC32E06
:1004F000B42EA52E822F932FA42FB52F7C018D0112
:10050000992009F048C080E060E00E940E01672851
:1005100011F4CD2B19F089E690E002C08BE690E053
:100520000E94AE006D2D7C2D8B2D9A2D20E432E49F
:100530004FE050E00E940B03DA01C90139010E942B
:1005400097018DE690E00E94AE006D2D7C2D8B2DE5
:100550009A2D28EE33E040E050E00E940B03DA01D0
:10056000C90168EE73E00E94F802282F392FE901D3
:1005700067E770E043E020E30E94BD010E94AE0007
:100580008FE690E00E94AE0081E060E00E940E01E4
:1005900087E0982E01C09A9488EE93E0F10131979C
:1005A000F1F70197D9F7949AC2010197F1F794985E
:1005B0006DCF629FD001739FF001829FE00DF11D0E
:1005C000649FE00DF11D929FF00D839FF00D749FCD
:1005D000F00D659FF00D9927729FB00DE11DF91F79
:1005E000639FB00DE11DF91FBD01CF0111240895D6
:1005F00097FB092E07260AD077FD04D02ED006D00F
:1006000000201AF4709561957F4F0895F6F7909544
:1006100081959F4F0895A1E21A2EAA1BBB1BFD01D5
:100620000DC0AA1FBB1FEE1FFF1FA217B307E407D1
:10063000F50720F0A21BB30BE40BF50B661F771F29
:10064000881F991F1A9469F7609570958095909509
:100650009B01AC01BD01CF010895AA1BBB1B51E159
:1006600007C0AA1FBB1FA617B70710F0A61BB70B22
:10067000881F991F5A95A9F780959095BC01CD01C7
:100680000895DC01FC01672F71917723E1F7329720
:1006900004C07C916D9370836291AE17BF07C8F35D
:1006A0000895FB019F01E8944230C4F04532B4F450
:1006B0004A3029F497FB1EF4909581959F4F642F43
:1006C00077270E942D03805D8A330CF0895D81932A
:1006D000CB010097A1F716F45DE251931082C90196
:1006E0000C944103E199FECF9FBB8EBBE09A992702
:0806F0008DB30895F894FFCFCB
:1006F80073746172742E2E2E002B0020002E0020A1
:0607080056202020000035
:00000001FF
